:100000000C942A000C9434000C9434000C943400AA
:100010000C9434000C9434000C9434000C94340090
:100020000C9434000C9434000C9434000C94340080
:100030000C9434000C9434000C9434000C94340070
:100040000C9434000C9434000C9434000C94340060
:100050000C94340011241FBECFE5D8E0DEBFCDBF25
:100060000E9473000C949D000C940000FB018130F1
:1000700049F481E090E001C0880F4A95EAF7918148
:10008000892B0BC081110AC081E090E001C0880F6C
:100090004A95EAF78095918189238183089581307B
:1000A00021F48FEFFB0182830895811102C0FB01CF
:1000B00012820895FB01813049F481E090E001C093
:1000C000880F4A95EAF79281892B0BC081110AC0EB
:1000D00081E090E001C0880F4A95EAF7809592810F
:1000E00089238283089544E060E370E081E00E9408
:1000F000360045E060E370E081E00E94360046E0B3
:1001000060E370E081E00E94360047E060E370E069
:1001100081E00E94360060E370E081E00E944F00C1
:1001200046E060E370E080E00E945A0047E060E350
:0E01300070E080E00E945A00EECFF894FFCFFE
:00000001FF
